{
  "contractName": "User",
  "abi": [
    {
      "inputs": [],
      "payable": false,
      "stateMutability": "nonpayable",
      "type": "constructor"
    },
    {
      "constant": true,
      "inputs": [
        {
          "internalType": "address",
          "name": "",
          "type": "address"
        }
      ],
      "name": "insureds",
      "outputs": [
        {
          "internalType": "string",
          "name": "surname",
          "type": "string"
        },
        {
          "internalType": "string",
          "name": "name",
          "type": "string"
        },
        {
          "internalType": "string",
          "name": "street",
          "type": "string"
        },
        {
          "internalType": "string",
          "name": "street_number",
          "type": "string"
        },
        {
          "internalType": "uint256",
          "name": "post_code",
          "type": "uint256"
        },
        {
          "internalType": "string",
          "name": "city",
          "type": "string"
        },
        {
          "internalType": "string",
          "name": "birth_date",
          "type": "string"
        },
        {
          "internalType": "string",
          "name": "insurance",
          "type": "string"
        },
        {
          "internalType": "uint256",
          "name": "insurance_number",
          "type": "uint256"
        },
        {
          "internalType": "uint256",
          "name": "insured_number",
          "type": "uint256"
        },
        {
          "internalType": "uint256",
          "name": "insured_status",
          "type": "uint256"
        },
        {
          "internalType": "bool",
          "name": "verified",
          "type": "bool"
        }
      ],
      "payable": false,
      "stateMutability": "view",
      "type": "function"
    },
    {
      "constant": true,
      "inputs": [
        {
          "internalType": "address",
          "name": "",
          "type": "address"
        }
      ],
      "name": "pharmacists",
      "outputs": [
        {
          "internalType": "uint256",
          "name": "pharmacy_number",
          "type": "uint256"
        },
        {
          "internalType": "string",
          "name": "name",
          "type": "string"
        },
        {
          "internalType": "bool",
          "name": "verified",
          "type": "bool"
        }
      ],
      "payable": false,
      "stateMutability": "view",
      "type": "function"
    },
    {
      "constant": true,
      "inputs": [
        {
          "internalType": "address",
          "name": "",
          "type": "address"
        }
      ],
      "name": "physicians",
      "outputs": [
        {
          "internalType": "string",
          "name": "job_title",
          "type": "string"
        },
        {
          "internalType": "string",
          "name": "surname",
          "type": "string"
        },
        {
          "internalType": "string",
          "name": "name",
          "type": "string"
        },
        {
          "internalType": "uint256",
          "name": "physician_number",
          "type": "uint256"
        },
        {
          "internalType": "string",
          "name": "street",
          "type": "string"
        },
        {
          "internalType": "string",
          "name": "street_number",
          "type": "string"
        },
        {
          "internalType": "uint256",
          "name": "post_code",
          "type": "uint256"
        },
        {
          "internalType": "string",
          "name": "city",
          "type": "string"
        },
        {
          "internalType": "string",
          "name": "telephone_number",
          "type": "string"
        },
        {
          "internalType": "uint256",
          "name": "business_number",
          "type": "uint256"
        },
        {
          "internalType": "bool",
          "name": "verified",
          "type": "bool"
        }
      ],
      "payable": false,
      "stateMutability": "view",
      "type": "function"
    },
    {
      "constant": true,
      "inputs": [],
      "name": "verifying_institution",
      "outputs": [
        {
          "internalType": "address",
          "name": "",
          "type": "address"
        }
      ],
      "payable": false,
      "stateMutability": "view",
      "type": "function"
    },
    {
      "constant": false,
      "inputs": [
        {
          "components": [
            {
              "internalType": "string",
              "name": "surname",
              "type": "string"
            },
            {
              "internalType": "string",
              "name": "name",
              "type": "string"
            },
            {
              "internalType": "string",
              "name": "street",
              "type": "string"
            },
            {
              "internalType": "string",
              "name": "street_number",
              "type": "string"
            },
            {
              "internalType": "uint256",
              "name": "post_code",
              "type": "uint256"
            },
            {
              "internalType": "string",
              "name": "city",
              "type": "string"
            },
            {
              "internalType": "string",
              "name": "birth_date",
              "type": "string"
            },
            {
              "internalType": "string",
              "name": "insurance",
              "type": "string"
            },
            {
              "internalType": "uint256",
              "name": "insurance_number",
              "type": "uint256"
            },
            {
              "internalType": "uint256",
              "name": "insured_number",
              "type": "uint256"
            },
            {
              "internalType": "uint256",
              "name": "insured_status",
              "type": "uint256"
            },
            {
              "internalType": "bool",
              "name": "verified",
              "type": "bool"
            }
          ],
          "internalType": "struct User.Insured",
          "name": "insured_",
          "type": "tuple"
        }
      ],
      "name": "addNewInsured",
      "outputs": [],
      "payable": false,
      "stateMutability": "nonpayable",
      "type": "function"
    },
    {
      "constant": false,
      "inputs": [
        {
          "components": [
            {
              "internalType": "string",
              "name": "job_title",
              "type": "string"
            },
            {
              "internalType": "string",
              "name": "surname",
              "type": "string"
            },
            {
              "internalType": "string",
              "name": "name",
              "type": "string"
            },
            {
              "internalType": "uint256",
              "name": "physician_number",
              "type": "uint256"
            },
            {
              "internalType": "string",
              "name": "street",
              "type": "string"
            },
            {
              "internalType": "string",
              "name": "street_number",
              "type": "string"
            },
            {
              "internalType": "uint256",
              "name": "post_code",
              "type": "uint256"
            },
            {
              "internalType": "string",
              "name": "city",
              "type": "string"
            },
            {
              "internalType": "string",
              "name": "telephone_number",
              "type": "string"
            },
            {
              "internalType": "uint256",
              "name": "business_number",
              "type": "uint256"
            },
            {
              "internalType": "bool",
              "name": "verified",
              "type": "bool"
            }
          ],
          "internalType": "struct User.Physician",
          "name": "physician_",
          "type": "tuple"
        }
      ],
      "name": "addNewPhysician",
      "outputs": [],
      "payable": false,
      "stateMutability": "nonpayable",
      "type": "function"
    },
    {
      "constant": false,
      "inputs": [
        {
          "components": [
            {
              "internalType": "uint256",
              "name": "pharmacy_number",
              "type": "uint256"
            },
            {
              "internalType": "string",
              "name": "name",
              "type": "string"
            },
            {
              "internalType": "bool",
              "name": "verified",
              "type": "bool"
            }
          ],
          "internalType": "struct User.Pharmacist",
          "name": "pharmacist_",
          "type": "tuple"
        }
      ],
      "name": "addNewPharmacist",
      "outputs": [],
      "payable": false,
      "stateMutability": "nonpayable",
      "type": "function"
    },
    {
      "constant": false,
      "inputs": [
        {
          "internalType": "address",
          "name": "public_key",
          "type": "address"
        }
      ],
      "name": "verifyInsured",
      "outputs": [
        {
          "internalType": "bool",
          "name": "",
          "type": "bool"
        }
      ],
      "payable": false,
      "stateMutability": "nonpayable",
      "type": "function"
    },
    {
      "constant": false,
      "inputs": [
        {
          "internalType": "address",
          "name": "public_key",
          "type": "address"
        }
      ],
      "name": "verifyPhysician",
      "outputs": [
        {
          "internalType": "bool",
          "name": "",
          "type": "bool"
        }
      ],
      "payable": false,
      "stateMutability": "nonpayable",
      "type": "function"
    },
    {
      "constant": false,
      "inputs": [
        {
          "internalType": "address",
          "name": "public_key",
          "type": "address"
        }
      ],
      "name": "verifyPharmacist",
      "outputs": [
        {
          "internalType": "bool",
          "name": "",
          "type": "bool"
        }
      ],
      "payable": false,
      "stateMutability": "nonpayable",
      "type": "function"
    },
    {
      "constant": true,
      "inputs": [
        {
          "internalType": "address",
          "name": "public_key",
          "type": "address"
        }
      ],
      "name": "getInsured",
      "outputs": [
        {
          "components": [
            {
              "internalType": "string",
              "name": "surname",
              "type": "string"
            },
            {
              "internalType": "string",
              "name": "name",
              "type": "string"
            },
            {
              "internalType": "string",
              "name": "street",
              "type": "string"
            },
            {
              "internalType": "string",
              "name": "street_number",
              "type": "string"
            },
            {
              "internalType": "uint256",
              "name": "post_code",
              "type": "uint256"
            },
            {
              "internalType": "string",
              "name": "city",
              "type": "string"
            },
            {
              "internalType": "string",
              "name": "birth_date",
              "type": "string"
            },
            {
              "internalType": "string",
              "name": "insurance",
              "type": "string"
            },
            {
              "internalType": "uint256",
              "name": "insurance_number",
              "type": "uint256"
            },
            {
              "internalType": "uint256",
              "name": "insured_number",
              "type": "uint256"
            },
            {
              "internalType": "uint256",
              "name": "insured_status",
              "type": "uint256"
            },
            {
              "internalType": "bool",
              "name": "verified",
              "type": "bool"
            }
          ],
          "internalType": "struct User.Insured",
          "name": "",
          "type": "tuple"
        }
      ],
      "payable": false,
      "stateMutability": "view",
      "type": "function"
    },
    {
      "constant": true,
      "inputs": [
        {
          "internalType": "address",
          "name": "public_key",
          "type": "address"
        }
      ],
      "name": "getPhysician",
      "outputs": [
        {
          "components": [
            {
              "internalType": "string",
              "name": "job_title",
              "type": "string"
            },
            {
              "internalType": "string",
              "name": "surname",
              "type": "string"
            },
            {
              "internalType": "string",
              "name": "name",
              "type": "string"
            },
            {
              "internalType": "uint256",
              "name": "physician_number",
              "type": "uint256"
            },
            {
              "internalType": "string",
              "name": "street",
              "type": "string"
            },
            {
              "internalType": "string",
              "name": "street_number",
              "type": "string"
            },
            {
              "internalType": "uint256",
              "name": "post_code",
              "type": "uint256"
            },
            {
              "internalType": "string",
              "name": "city",
              "type": "string"
            },
            {
              "internalType": "string",
              "name": "telephone_number",
              "type": "string"
            },
            {
              "internalType": "uint256",
              "name": "business_number",
              "type": "uint256"
            },
            {
              "internalType": "bool",
              "name": "verified",
              "type": "bool"
            }
          ],
          "internalType": "struct User.Physician",
          "name": "",
          "type": "tuple"
        }
      ],
      "payable": false,
      "stateMutability": "view",
      "type": "function"
    },
    {
      "constant": true,
      "inputs": [
        {
          "internalType": "address",
          "name": "public_key",
          "type": "address"
        }
      ],
      "name": "getPharmacist",
      "outputs": [
        {
          "components": [
            {
              "internalType": "uint256",
              "name": "pharmacy_number",
              "type": "uint256"
            },
            {
              "internalType": "string",
              "name": "name",
              "type": "string"
            },
            {
              "internalType": "bool",
              "name": "verified",
              "type": "bool"
            }
          ],
          "internalType": "struct User.Pharmacist",
          "name": "",
          "type": "tuple"
        }
      ],
      "payable": false,
      "stateMutability": "view",
      "type": "function"
    },
    {
      "constant": true,
      "inputs": [
        {
          "internalType": "string",
          "name": "role",
          "type": "string"
        },
        {
          "internalType": "address",
          "name": "public_key",
          "type": "address"
        }
      ],
      "name": "checkExistence",
      "outputs": [
        {
          "internalType": "bool",
          "name": "",
          "type": "bool"
        }
      ],
      "payable": false,
      "stateMutability": "view",
      "type": "function"
    },
    {
      "constant": true,
      "inputs": [
        {
          "internalType": "string",
          "name": "role",
          "type": "string"
        },
        {
          "internalType": "address",
          "name": "public_key",
          "type": "address"
        }
      ],
      "name": "checkVerification",
      "outputs": [
        {
          "internalType": "bool",
          "name": "",
          "type": "bool"
        }
      ],
      "payable": false,
      "stateMutability": "view",
      "type": "function"
    }
  ],
  "bytecode": "0x608060405234801561001057600080fd5b50336000806101000a81548173ffffffffffffffffffffffffffffffffffffffff021916908373ffffffffffffffffffffffffffffffffffffffff160217905550613d7e806100606000396000f3fe608060405234801561001057600080fd5b50600436106100f55760003560e01c806381eceeb711610097578063c863b9e511610066578063c863b9e5146102be578063e669845a146102f9578063f5860dfc14610333578063f7350e6014610363576100f5565b806381eceeb71461021057806384efc52f1461022e578063b04f35351461025e578063c11dd8081461028e576100f5565b8063462c6d13116100d3578063462c6d131461018c5780634b7b9842146101bc5780636e98f9f3146101d85780637338bcf5146101f4576100f5565b80630ee60c57146100fa5780631abf575a1461012a5780631ee952ad1461015c575b600080fd5b610114600480360361010f9190810190612f9e565b610393565b604051610121919061384d565b60405180910390f35b610144600480360361013f9190810190612f9e565b610509565b60405161015393929190613b55565b60405180910390f35b61017660048036036101719190810190612f9e565b6105d8565b6040516101839190613b33565b60405180910390f35b6101a660048036036101a19190810190612f9e565b610b2a565b6040516101b3919061384d565b60405180910390f35b6101d660048036036101d1919081019061301b565b610ca0565b005b6101f260048036036101ed919081019061309d565b610e80565b005b61020e6004803603610209919081019061305c565b61104a565b005b6102186110fc565b6040516102259190613832565b60405180910390f35b61024860048036036102439190810190612f9e565b611121565b6040516102559190613b11565b60405180910390f35b61027860048036036102739190810190612fc7565b611292565b604051610285919061384d565b60405180910390f35b6102a860048036036102a39190810190612f9e565b611561565b6040516102b59190613aef565b60405180910390f35b6102d860048036036102d39190810190612f9e565b611abd565b6040516102f09c9b9a99989796959493929190613868565b60405180910390f35b610313600480360361030e9190810190612f9e565b611f52565b60405161032a9b9a99989796959493929190613953565b60405180910390f35b61034d60048036036103489190810190612f9e565b6123e1565b60405161035a919061384d565b60405180910390f35b61037d60048036036103789190810190612fc7565b612556565b60405161038a919061384d565b60405180910390f35b60008060009054906101000a900473ffffffffffffffffffffffffffffffffffffffff1673ffffffffffffffffffffffffffffffffffffffff163373ffffffffffffffffffffffffffffffffffffffff1614610424576040517f08c379a000000000000000000000000000000000000000000000000000000000815260040161041b90613a4f565b60405180910390fd5b6000600260008473ffffffffffffffffffffffffffffffffffffffff1673ffffffffffffffffffffffffffffffffffffffff16815260200190815260200160002060030154116104a9576040517f08c379a00000000000000000000000000000000000000000000000000000000081526004016104a090613a2f565b60405180910390fd5b6001600260008473ffffffffffffffffffffffffffffffffffffffff1673ffffffffffffffffffffffffffffffffffffffff168152602001908152602001600020600a0160006101000a81548160ff021916908315150217905550919050565b6003602052806000526040600020600091509050806000015490806001018054600181600116156101000203166002900480601f0160208091040260200160405190810160405280929190818152602001828054600181600116156101000203166002900480156105bb5780601f10610590576101008083540402835291602001916105bb565b820191906000526020600020905b81548152906001019060200180831161059e57829003601f168201915b5050505050908060020160009054906101000a900460ff16905083565b6105e0612942565b6000600260008473ffffffffffffffffffffffffffffffffffffffff1673ffffffffffffffffffffffffffffffffffffffff168152602001908152602001600020600301541115610b2457600260008373ffffffffffffffffffffffffffffffffffffffff1673ffffffffffffffffffffffffffffffffffffffff16815260200190815260200160002060405180610160016040529081600082018054600181600116156101000203166002900480601f01602080910402602001604051908101604052809291908181526020018280546001816001161561010002031660029004801561070f5780601f106106e45761010080835404028352916020019161070f565b820191906000526020600020905b8154815290600101906020018083116106f257829003601f168201915b50505050508152602001600182018054600181600116156101000203166002900480601f0160208091040260200160405190810160405280929190818152602001828054600181600116156101000203166002900480156107b15780601f10610786576101008083540402835291602001916107b1565b820191906000526020600020905b81548152906001019060200180831161079457829003601f168201915b50505050508152602001600282018054600181600116156101000203166002900480601f0160208091040260200160405190810160405280929190818152602001828054600181600116156101000203166002900480156108535780601f1061082857610100808354040283529160200191610853565b820191906000526020600020905b81548152906001019060200180831161083657829003601f168201915b5050505050815260200160038201548152602001600482018054600181600116156101000203166002900480601f0160208091040260200160405190810160405280929190818152602001828054600181600116156101000203166002900480156108ff5780601f106108d4576101008083540402835291602001916108ff565b820191906000526020600020905b8154815290600101906020018083116108e257829003601f168201915b50505050508152602001600582018054600181600116156101000203166002900480601f0160208091040260200160405190810160405280929190818152602001828054600181600116156101000203166002900480156109a15780601f10610976576101008083540402835291602001916109a1565b820191906000526020600020905b81548152906001019060200180831161098457829003601f168201915b5050505050815260200160068201548152602001600782018054600181600116156101000203166002900480601f016020809104026020016040519081016040528092919081815260200182805460018160011615610100020316600290048015610a4d5780601f10610a2257610100808354040283529160200191610a4d565b820191906000526020600020905b815481529060010190602001808311610a3057829003601f168201915b50505050508152602001600882018054600181600116156101000203166002900480601f016020809104026020016040519081016040528092919081815260200182805460018160011615610100020316600290048015610aef5780601f10610ac457610100808354040283529160200191610aef565b820191906000526020600020905b815481529060010190602001808311610ad257829003601f168201915b5050505050815260200160098201548152602001600a820160009054906101000a900460ff1615151515815250509050610b25565b5b919050565b60008060009054906101000a900473ffffffffffffffffffffffffffffffffffffffff1673ffffffffffffffffffffffffffffffffffffffff163373ffffffffffffffffffffffffffffffffffffffff1614610bbb576040517f08c379a0000000000000000000000000000000000000000000000000000000008152600401610bb290613acf565b60405180910390fd5b6000600360008473ffffffffffffffffffffffffffffffffffffffff1673ffffffffffffffffffffffffffffffffffffffff1681526020019081526020016000206000015411610c40576040517f08c379a0000000000000000000000000000000000000000000000000000000008152600401610c3790613a8f565b60405180910390fd5b6001600360008473ffffffffffffffffffffffffffffffffffffffff1673ffffffffffffffffffffffffffffffffffffffff16815260200190815260200160002060020160006101000a81548160ff021916908315150217905550919050565b60405180610180016040528082600001518152602001826020015181526020018260400151815260200182606001518152602001826080015181526020018260a0015181526020018260c0015181526020018260e00151815260200182610100015181526020018261012001518152602001826101400151815260200160001515815250600160003373ffffffffffffffffffffffffffffffffffffffff1673ffffffffffffffffffffffffffffffffffffffff1681526020019081526020016000206000820151816000019080519060200190610d7f92919061299e565b506020820151816001019080519060200190610d9c92919061299e565b506040820151816002019080519060200190610db992919061299e565b506060820151816003019080519060200190610dd692919061299e565b506080820151816004015560a0820151816005019080519060200190610dfd92919061299e565b5060c0820151816006019080519060200190610e1a92919061299e565b5060e0820151816007019080519060200190610e3792919061299e565b506101008201518160080155610120820151816009015561014082015181600a015561016082015181600b0160006101000a81548160ff02191690831515021790555090505050565b60405180610160016040528082600001518152602001826020015181526020018260400151815260200182606001518152602001826080015181526020018260a0015181526020018260c0015181526020018260e0015181526020018261010001518152602001826101200151815260200160001515815250600260003373ffffffffffffffffffffffffffffffffffffffff1673ffffffffffffffffffffffffffffffffffffffff1681526020019081526020016000206000820151816000019080519060200190610f5492919061299e565b506020820151816001019080519060200190610f7192919061299e565b506040820151816002019080519060200190610f8e92919061299e565b50606082015181600301556080820151816004019080519060200190610fb592919061299e565b5060a0820151816005019080519060200190610fd292919061299e565b5060c0820151816006015560e0820151816007019080519060200190610ff992919061299e565b5061010082015181600801908051906020019061101792919061299e565b50610120820151816009015561014082015181600a0160006101000a81548160ff02191690831515021790555090505050565b6040518060600160405280826000015181526020018260200151815260200160001515815250600360003373ffffffffffffffffffffffffffffffffffffffff1673ffffffffffffffffffffffffffffffffffffffff1681526020019081526020016000206000820151816000015560208201518160010190805190602001906110d592919061299e565b5060408201518160020160006101000a81548160ff02191690831515021790555090505050565b6000809054906101000a900473ffffffffffffffffffffffffffffffffffffffff1681565b611129612a1e565b6000600360008473ffffffffffffffffffffffffffffffffffffffff1673ffffffffffffffffffffffffffffffffffffffff16815260200190815260200160002060000154111561128c57600360008373ffffffffffffffffffffffffffffffffffffffff1673ffffffffffffffffffffffffffffffffffffffff16815260200190815260200160002060405180606001604052908160008201548152602001600182018054600181600116156101000203166002900480601f0160208091040260200160405190810160405280929190818152602001828054600181600116156101000203166002900480156112615780601f1061123657610100808354040283529160200191611261565b820191906000526020600020905b81548152906001019060200180831161124457829003601f168201915b505050505081526020016002820160009054906101000a900460ff161515151581525050905061128d565b5b919050565b60006040516020016112a39061381d565b60405160208183030381529060405280519060200120836040516020016112ca91906137c7565b604051602081830303815290604052805190602001201415611343576000600160008473ffffffffffffffffffffffffffffffffffffffff1673ffffffffffffffffffffffffffffffffffffffff16815260200190815260200160002060090154111561133a576001905061155b565b6000905061155b565b60405160200161135290613808565b604051602081830303815290604052805190602001208360405160200161137991906137c7565b6040516020818303038152906040528051906020012014156113f2576000600260008473ffffffffffffffffffffffffffffffffffffffff1673ffffffffffffffffffffffffffffffffffffffff1681526020019081526020016000206003015411156113e9576001905061155b565b6000905061155b565b604051602001611401906137f3565b604051602081830303815290604052805190602001208360405160200161142891906137c7565b6040516020818303038152906040528051906020012014156114a1576000600360008473ffffffffffffffffffffffffffffffffffffffff1673ffffffffffffffffffffffffffffffffffffffff168152602001908152602001600020600001541115611498576001905061155b565b6000905061155b565b6040516020016114b0906137de565b60405160208183030381529060405280519060200120836040516020016114d791906137c7565b60405160208183030381529060405280519060200120141561155a578173ffffffffffffffffffffffffffffffffffffffff166000809054906101000a900473ffffffffffffffffffffffffffffffffffffffff1673ffffffffffffffffffffffffffffffffffffffff161415611551576001905061155b565b6000905061155b565b5b92915050565b611569612a41565b6000600160008473ffffffffffffffffffffffffffffffffffffffff1673ffffffffffffffffffffffffffffffffffffffff168152602001908152602001600020600901541115611ab757600160008373ffffffffffffffffffffffffffffffffffffffff1673ffffffffffffffffffffffffffffffffffffffff16815260200190815260200160002060405180610180016040529081600082018054600181600116156101000203166002900480601f0160208091040260200160405190810160405280929190818152602001828054600181600116156101000203166002900480156116985780601f1061166d57610100808354040283529160200191611698565b820191906000526020600020905b81548152906001019060200180831161167b57829003601f168201915b50505050508152602001600182018054600181600116156101000203166002900480601f01602080910402602001604051908101604052809291908181526020018280546001816001161561010002031660029004801561173a5780601f1061170f5761010080835404028352916020019161173a565b820191906000526020600020905b81548152906001019060200180831161171d57829003601f168201915b50505050508152602001600282018054600181600116156101000203166002900480601f0160208091040260200160405190810160405280929190818152602001828054600181600116156101000203166002900480156117dc5780601f106117b1576101008083540402835291602001916117dc565b820191906000526020600020905b8154815290600101906020018083116117bf57829003601f168201915b50505050508152602001600382018054600181600116156101000203166002900480601f01602080910402602001604051908101604052809291908181526020018280546001816001161561010002031660029004801561187e5780601f106118535761010080835404028352916020019161187e565b820191906000526020600020905b81548152906001019060200180831161186157829003601f168201915b5050505050815260200160048201548152602001600582018054600181600116156101000203166002900480601f01602080910402602001604051908101604052809291908181526020018280546001816001161561010002031660029004801561192a5780601f106118ff5761010080835404028352916020019161192a565b820191906000526020600020905b81548152906001019060200180831161190d57829003601f168201915b50505050508152602001600682018054600181600116156101000203166002900480601f0160208091040260200160405190810160405280929190818152602001828054600181600116156101000203166002900480156119cc5780601f106119a1576101008083540402835291602001916119cc565b820191906000526020600020905b8154815290600101906020018083116119af57829003601f168201915b50505050508152602001600782018054600181600116156101000203166002900480601f016020809104026020016040519081016040528092919081815260200182805460018160011615610100020316600290048015611a6e5780601f10611a4357610100808354040283529160200191611a6e565b820191906000526020600020905b815481529060010190602001808311611a5157829003601f168201915b505050505081526020016008820154815260200160098201548152602001600a8201548152602001600b820160009054906101000a900460ff1615151515815250509050611ab8565b5b919050565b6001602052806000526040600020600091509050806000018054600181600116156101000203166002900480601f016020809104026020016040519081016040528092919081815260200182805460018160011615610100020316600290048015611b695780601f10611b3e57610100808354040283529160200191611b69565b820191906000526020600020905b815481529060010190602001808311611b4c57829003601f168201915b505050505090806001018054600181600116156101000203166002900480601f016020809104026020016040519081016040528092919081815260200182805460018160011615610100020316600290048015611c075780601f10611bdc57610100808354040283529160200191611c07565b820191906000526020600020905b815481529060010190602001808311611bea57829003601f168201915b505050505090806002018054600181600116156101000203166002900480601f016020809104026020016040519081016040528092919081815260200182805460018160011615610100020316600290048015611ca55780601f10611c7a57610100808354040283529160200191611ca5565b820191906000526020600020905b815481529060010190602001808311611c8857829003601f168201915b505050505090806003018054600181600116156101000203166002900480601f016020809104026020016040519081016040528092919081815260200182805460018160011615610100020316600290048015611d435780601f10611d1857610100808354040283529160200191611d43565b820191906000526020600020905b815481529060010190602001808311611d2657829003601f168201915b505050505090806004015490806005018054600181600116156101000203166002900480601f016020809104026020016040519081016040528092919081815260200182805460018160011615610100020316600290048015611de75780601f10611dbc57610100808354040283529160200191611de7565b820191906000526020600020905b815481529060010190602001808311611dca57829003601f168201915b505050505090806006018054600181600116156101000203166002900480601f016020809104026020016040519081016040528092919081815260200182805460018160011615610100020316600290048015611e855780601f10611e5a57610100808354040283529160200191611e85565b820191906000526020600020905b815481529060010190602001808311611e6857829003601f168201915b505050505090806007018054600181600116156101000203166002900480601f016020809104026020016040519081016040528092919081815260200182805460018160011615610100020316600290048015611f235780601f10611ef857610100808354040283529160200191611f23565b820191906000526020600020905b815481529060010190602001808311611f0657829003601f168201915b50505050509080600801549080600901549080600a01549080600b0160009054906101000a900460ff1690508c565b6002602052806000526040600020600091509050806000018054600181600116156101000203166002900480601f016020809104026020016040519081016040528092919081815260200182805460018160011615610100020316600290048015611ffe5780601f10611fd357610100808354040283529160200191611ffe565b820191906000526020600020905b815481529060010190602001808311611fe157829003601f168201915b505050505090806001018054600181600116156101000203166002900480601f01602080910402602001604051908101604052809291908181526020018280546001816001161561010002031660029004801561209c5780601f106120715761010080835404028352916020019161209c565b820191906000526020600020905b81548152906001019060200180831161207f57829003601f168201915b505050505090806002018054600181600116156101000203166002900480601f01602080910402602001604051908101604052809291908181526020018280546001816001161561010002031660029004801561213a5780601f1061210f5761010080835404028352916020019161213a565b820191906000526020600020905b81548152906001019060200180831161211d57829003601f168201915b505050505090806003015490806004018054600181600116156101000203166002900480601f0160208091040260200160405190810160405280929190818152602001828054600181600116156101000203166002900480156121de5780601f106121b3576101008083540402835291602001916121de565b820191906000526020600020905b8154815290600101906020018083116121c157829003601f168201915b505050505090806005018054600181600116156101000203166002900480601f01602080910402602001604051908101604052809291908181526020018280546001816001161561010002031660029004801561227c5780601f106122515761010080835404028352916020019161227c565b820191906000526020600020905b81548152906001019060200180831161225f57829003601f168201915b505050505090806006015490806007018054600181600116156101000203166002900480601f0160208091040260200160405190810160405280929190818152602001828054600181600116156101000203166002900480156123205780601f106122f557610100808354040283529160200191612320565b820191906000526020600020905b81548152906001019060200180831161230357829003601f168201915b505050505090806008018054600181600116156101000203166002900480601f0160208091040260200160405190810160405280929190818152602001828054600181600116156101000203166002900480156123be5780601f10612393576101008083540402835291602001916123be565b820191906000526020600020905b8154815290600101906020018083116123a157829003601f168201915b50505050509080600901549080600a0160009054906101000a900460ff1690508b565b60008060009054906101000a900473ffffffffffffffffffffffffffffffffffffffff1673ffffffffffffffffffffffffffffffffffffffff163373ffffffffffffffffffffffffffffffffffffffff1614612472576040517f08c379a000000000000000000000000000000000000000000000000000000000815260040161246990613a6f565b60405180910390fd5b6000600160008473ffffffffffffffffffffffffffffffffffffffff1673ffffffffffffffffffffffffffffffffffffffff16815260200190815260200160002060090154116124f7576040517f08c379a00000000000000000000000000000000000000000000000000000000081526004016124ee90613aaf565b60405180910390fd5b60018060008473ffffffffffffffffffffffffffffffffffffffff1673ffffffffffffffffffffffffffffffffffffffff168152602001908152602001600020600b0160006101000a81548160ff021916908315150217905550919050565b60006040516020016125679061381d565b604051602081830303815290604052805190602001208360405160200161258e91906137c7565b604051602081830303815290604052805190602001201415612666576000600160008473ffffffffffffffffffffffffffffffffffffffff1673ffffffffffffffffffffffffffffffffffffffff1681526020019081526020016000206009015411801561264f575060011515600160008473ffffffffffffffffffffffffffffffffffffffff1673ffffffffffffffffffffffffffffffffffffffff168152602001908152602001600020600b0160009054906101000a900460ff161515145b1561265d576001905061293c565b6000905061293c565b60405160200161267590613808565b604051602081830303815290604052805190602001208360405160200161269c91906137c7565b604051602081830303815290604052805190602001201415612774576000600260008473ffffffffffffffffffffffffffffffffffffffff1673ffffffffffffffffffffffffffffffffffffffff1681526020019081526020016000206003015411801561275d575060011515600260008473ffffffffffffffffffffffffffffffffffffffff1673ffffffffffffffffffffffffffffffffffffffff168152602001908152602001600020600a0160009054906101000a900460ff161515145b1561276b576001905061293c565b6000905061293c565b604051602001612783906137f3565b60405160208183030381529060405280519060200120836040516020016127aa91906137c7565b604051602081830303815290604052805190602001201415612882576000600360008473ffffffffffffffffffffffffffffffffffffffff1673ffffffffffffffffffffffffffffffffffffffff1681526020019081526020016000206000015411801561286b575060011515600360008473ffffffffffffffffffffffffffffffffffffffff1673ffffffffffffffffffffffffffffffffffffffff16815260200190815260200160002060020160009054906101000a900460ff161515145b15612879576001905061293c565b6000905061293c565b604051602001612891906137de565b60405160208183030381529060405280519060200120836040516020016128b891906137c7565b60405160208183030381529060405280519060200120141561293b578173ffffffffffffffffffffffffffffffffffffffff166000809054906101000a900473ffffffffffffffffffffffffffffffffffffffff1673ffffffffffffffffffffffffffffffffffffffff161415612932576001905061293c565b6000905061293c565b5b92915050565b604051806101600160405280606081526020016060815260200160608152602001600081526020016060815260200160608152602001600081526020016060815260200160608152602001600081526020016000151581525090565b828054600181600116156101000203166002900490600052602060002090601f016020900481019282601f106129df57805160ff1916838001178555612a0d565b82800160010185558215612a0d579182015b82811115612a0c5782518255916020019190600101906129f1565b5b509050612a1a9190612aa4565b5090565b604051806060016040528060008152602001606081526020016000151581525090565b60405180610180016040528060608152602001606081526020016060815260200160608152602001600081526020016060815260200160608152602001606081526020016000815260200160008152602001600081526020016000151581525090565b612ac691905b80821115612ac2576000816000905550600101612aaa565b5090565b90565b600081359050612ad881613cf6565b92915050565b600081359050612aed81613d0d565b92915050565b600082601f830112612b0457600080fd5b8135612b17612b1282613bc0565b613b93565b91508082526020830160208301858383011115612b3357600080fd5b612b3e838284613ca3565b50505092915050565b600082601f830112612b5857600080fd5b8135612b6b612b6682613bec565b613b93565b91508082526020830160208301858383011115612b8757600080fd5b612b92838284613ca3565b50505092915050565b60006101808284031215612bae57600080fd5b612bb9610180613b93565b9050600082013567ffffffffffffffff811115612bd557600080fd5b612be184828501612af3565b600083015250602082013567ffffffffffffffff811115612c0157600080fd5b612c0d84828501612af3565b602083015250604082013567ffffffffffffffff811115612c2d57600080fd5b612c3984828501612af3565b604083015250606082013567ffffffffffffffff811115612c5957600080fd5b612c6584828501612af3565b6060830152506080612c7984828501612f89565b60808301525060a082013567ffffffffffffffff811115612c9957600080fd5b612ca584828501612af3565b60a08301525060c082013567ffffffffffffffff811115612cc557600080fd5b612cd184828501612af3565b60c08301525060e082013567ffffffffffffffff811115612cf157600080fd5b612cfd84828501612af3565b60e083015250610100612d1284828501612f89565b61010083015250610120612d2884828501612f89565b61012083015250610140612d3e84828501612f89565b61014083015250610160612d5484828501612ade565b6101608301525092915050565b600060608284031215612d7357600080fd5b612d7d6060613b93565b90506000612d8d84828501612f89565b600083015250602082013567ffffffffffffffff811115612dad57600080fd5b612db984828501612af3565b6020830152506040612dcd84828501612ade565b60408301525092915050565b60006101608284031215612dec57600080fd5b612df7610160613b93565b9050600082013567ffffffffffffffff811115612e1357600080fd5b612e1f84828501612af3565b600083015250602082013567ffffffffffffffff811115612e3f57600080fd5b612e4b84828501612af3565b602083015250604082013567ffffffffffffffff811115612e6b57600080fd5b612e7784828501612af3565b6040830152506060612e8b84828501612f89565b606083015250608082013567ffffffffffffffff811115612eab57600080fd5b612eb784828501612af3565b60808301525060a082013567ffffffffffffffff811115612ed757600080fd5b612ee384828501612af3565b60a08301525060c0612ef784828501612f89565b60c08301525060e082013567ffffffffffffffff811115612f1757600080fd5b612f2384828501612af3565b60e08301525061010082013567ffffffffffffffff811115612f4457600080fd5b612f5084828501612af3565b61010083015250610120612f6684828501612f89565b61012083015250610140612f7c84828501612ade565b6101408301525092915050565b600081359050612f9881613d24565b92915050565b600060208284031215612fb057600080fd5b6000612fbe84828501612ac9565b91505092915050565b60008060408385031215612fda57600080fd5b600083013567ffffffffffffffff811115612ff457600080fd5b61300085828601612b47565b925050602061301185828601612ac9565b9150509250929050565b60006020828403121561302d57600080fd5b600082013567ffffffffffffffff81111561304757600080fd5b61305384828501612b9b565b91505092915050565b60006020828403121561306e57600080fd5b600082013567ffffffffffffffff81111561308857600080fd5b61309484828501612d61565b91505092915050565b6000602082840312156130af57600080fd5b600082013567ffffffffffffffff8111156130c957600080fd5b6130d584828501612dd9565b91505092915050565b6130e781613c5b565b82525050565b6130f681613c6d565b82525050565b61310581613c6d565b82525050565b600061311682613c23565b6131208185613c50565b9350613130818560208601613cb2565b80840191505092915050565b600061314782613c18565b6131518185613c2e565b9350613161818560208601613cb2565b61316a81613ce5565b840191505092915050565b600061318082613c18565b61318a8185613c3f565b935061319a818560208601613cb2565b6131a381613ce5565b840191505092915050565b60006131bb601583613c50565b91507f766572696679696e675f696e737469747574696f6e00000000000000000000006000830152601582019050919050565b60006131fb602783613c3f565b91507f4e6f2070687973696369616e2065786973747320756e6465722074686973206160008301527f64647265737321000000000000000000000000000000000000000000000000006020830152604082019050919050565b6000613261600a83613c50565b91507f706861726d6163697374000000000000000000000000000000000000000000006000830152600a82019050919050565b60006132a1603e83613c3f565b91507f4f6e6c79207468652076657269667920696e737469747574696f6e206861732060008301527f74686520726967687420746f207665726966792070687973696369616e2100006020830152604082019050919050565b6000613307603c83613c3f565b91507f4f6e6c79207468652076657269667920696e737469747574696f6e206861732060008301527f74686520726967687420746f2076657269667920696e737572656421000000006020830152604082019050919050565b600061336d602883613c3f565b91507f4e6f20706861726d61636973742065786973747320756e64657220746869732060008301527f61646472657373210000000000000000000000000000000000000000000000006020830152604082019050919050565b60006133d3600983613c50565b91507f70687973696369616e00000000000000000000000000000000000000000000006000830152600982019050919050565b6000613413602583613c3f565b91507f4e6f20696e73757265642065786973747320756e64657220746869732061646460008301527f72657373210000000000000000000000000000000000000000000000000000006020830152604082019050919050565b6000613479603f83613c3f565b91507f4f6e6c79207468652076657269667920696e737469747574696f6e206861732060008301527f74686520726967687420746f2076657269667920706861726d616369737421006020830152604082019050919050565b60006134df600783613c50565b91507f696e7375726564000000000000000000000000000000000000000000000000006000830152600782019050919050565b6000610180830160008301518482036000860152613530828261313c565b9150506020830151848203602086015261354a828261313c565b91505060408301518482036040860152613564828261313c565b9150506060830151848203606086015261357e828261313c565b915050608083015161359360808601826137a9565b5060a083015184820360a08601526135ab828261313c565b91505060c083015184820360c08601526135c5828261313c565b91505060e083015184820360e08601526135df828261313c565b9150506101008301516135f66101008601826137a9565b5061012083015161360b6101208601826137a9565b506101408301516136206101408601826137a9565b506101608301516136356101608601826130ed565b508091505092915050565b600060608301600083015161365860008601826137a9565b5060208301518482036020860152613670828261313c565b915050604083015161368560408601826130ed565b508091505092915050565b60006101608301600083015184820360008601526136ae828261313c565b915050602083015184820360208601526136c8828261313c565b915050604083015184820360408601526136e2828261313c565b91505060608301516136f760608601826137a9565b506080830151848203608086015261370f828261313c565b91505060a083015184820360a0860152613729828261313c565b91505060c083015161373e60c08601826137a9565b5060e083015184820360e0860152613756828261313c565b915050610100830151848203610100860152613772828261313c565b9150506101208301516137896101208601826137a9565b5061014083015161379e6101408601826130ed565b508091505092915050565b6137b281613c99565b82525050565b6137c181613c99565b82525050565b60006137d3828461310b565b915081905092915050565b60006137e9826131ae565b9150819050919050565b60006137fe82613254565b9150819050919050565b6000613813826133c6565b9150819050919050565b6000613828826134d2565b9150819050919050565b600060208201905061384760008301846130de565b92915050565b600060208201905061386260008301846130fc565b92915050565b6000610180820190508181036000830152613883818f613175565b90508181036020830152613897818e613175565b905081810360408301526138ab818d613175565b905081810360608301526138bf818c613175565b90506138ce608083018b6137b8565b81810360a08301526138e0818a613175565b905081810360c08301526138f48189613175565b905081810360e08301526139088188613175565b90506139186101008301876137b8565b6139266101208301866137b8565b6139346101408301856137b8565b6139426101608301846130fc565b9d9c50505050505050505050505050565b600061016082019050818103600083015261396e818e613175565b90508181036020830152613982818d613175565b90508181036040830152613996818c613175565b90506139a5606083018b6137b8565b81810360808301526139b7818a613175565b905081810360a08301526139cb8189613175565b90506139da60c08301886137b8565b81810360e08301526139ec8187613175565b9050818103610100830152613a018186613175565b9050613a116101208301856137b8565b613a1f6101408301846130fc565b9c9b505050505050505050505050565b60006020820190508181036000830152613a48816131ee565b9050919050565b60006020820190508181036000830152613a6881613294565b9050919050565b60006020820190508181036000830152613a88816132fa565b9050919050565b60006020820190508181036000830152613aa881613360565b9050919050565b60006020820190508181036000830152613ac881613406565b9050919050565b60006020820190508181036000830152613ae88161346c565b9050919050565b60006020820190508181036000830152613b098184613512565b905092915050565b60006020820190508181036000830152613b2b8184613640565b905092915050565b60006020820190508181036000830152613b4d8184613690565b905092915050565b6000606082019050613b6a60008301866137b8565b8181036020830152613b7c8185613175565b9050613b8b60408301846130fc565b949350505050565b6000604051905081810181811067ffffffffffffffff82111715613bb657600080fd5b8060405250919050565b600067ffffffffffffffff821115613bd757600080fd5b601f19601f8301169050602081019050919050565b600067ffffffffffffffff821115613c0357600080fd5b601f19601f8301169050602081019050919050565b600081519050919050565b600081519050919050565b600082825260208201905092915050565b600082825260208201905092915050565b600081905092915050565b6000613c6682613c79565b9050919050565b60008115159050919050565b600073ffffffffffffffffffffffffffffffffffffffff82169050919050565b6000819050919050565b82818337600083830152505050565b60005b83811015613cd0578082015181840152602081019050613cb5565b83811115613cdf576000848401525b50505050565b6000601f19601f8301169050919050565b613cff81613c5b565b8114613d0a57600080fd5b50565b613d1681613c6d565b8114613d2157600080fd5b50565b613d2d81613c99565b8114613d3857600080fd5b5056fea365627a7a723158206c66197f185c050c46c8dea0974e086cecb721311255a064477ba22da99bd2db6c6578706572696d656e74616cf564736f6c63430005100040",
  "source": "/**\r\n * @author Valentin Mueller <https://github.com/ValentinFFM>\r\n */\r\n\r\n// SPDX-License-Identifier: MIT\r\npragma solidity >=0.4.21 <0.7.0;\r\n\r\n// Experimental function is necessary to allow mappings with structs.\r\npragma experimental ABIEncoderV2;\r\n\r\n/**\r\n    The Smart Contract User is responsible for storing the information of all users.\r\n    Furthermore it provides all necessary functions to interact with users.\r\n */\r\ncontract User {\r\n\r\n    address public verifying_institution;\r\n\r\n    // Assigns the creator of the smart contract as verifying institution.\r\n    constructor () public {\r\n        verifying_institution = msg.sender;\r\n    }\r\n\r\n    // Defining struct that contains all variables that are needed for a insured.\r\n    struct Insured {\r\n        string surname;\r\n        string name;\r\n        string street;\r\n        string street_number;\r\n        uint post_code;\r\n        string city;\r\n\r\n        string birth_date;\r\n\r\n        string insurance;\r\n        uint insurance_number;\r\n        uint insured_number;\r\n        uint insured_status;\r\n\r\n        bool verified;\r\n    }\r\n\r\n    // Defining struct that contains all variables that are needed for a physician.\r\n    struct Physician {\r\n        string job_title;\r\n        string surname;\r\n        string name;\r\n        uint physician_number;\r\n\r\n        string street;\r\n        string street_number;\r\n        uint post_code;\r\n        string city;\r\n        string telephone_number; \r\n        uint business_number;\r\n\r\n        bool verified;\r\n    }\r\n\r\n    // Defining struct that contains all variables that are needed for a pharmacist.\r\n    struct Pharmacist {\r\n        uint pharmacy_number;\r\n        string name;\r\n\r\n        bool verified;\r\n    }\r\n\r\n    // For every user group the public keys of the users are mapped to the corresponding user struct.\r\n    mapping(address => Insured) public insureds;\r\n    mapping(address => Physician) public physicians;\r\n    mapping(address => Pharmacist) public pharmacists;\r\n\r\n\r\n\r\n    function addNewInsured(Insured memory insured_)  public{\r\n        insureds[msg.sender] = Insured(insured_.surname, insured_.name, insured_.street, insured_.street_number, insured_.post_code, insured_.city, insured_.birth_date, insured_.insurance, insured_.insurance_number, insured_.insured_number, insured_.insured_status, false);\r\n    }\r\n\r\n    function addNewPhysician(Physician memory physician_) public{\r\n        physicians[msg.sender] = Physician(physician_.job_title, physician_.surname, physician_.name, physician_.physician_number, physician_.street, physician_.street_number, physician_.post_code, physician_.city, physician_.telephone_number, physician_.business_number, false);\r\n    }\r\n\r\n    function addNewPharmacist(Pharmacist memory pharmacist_) public{\r\n        pharmacists[msg.sender] = Pharmacist(pharmacist_.pharmacy_number, pharmacist_.name, false);\r\n    }\r\n\r\n\r\n\r\n    function verifyInsured(address public_key) public returns (bool){\r\n        require(msg.sender == verifying_institution, \"Only the verify institution has the right to verify insured!\");\r\n        require(insureds[public_key].insured_number > 0, \"No insured exists under this address!\");\r\n        insureds[public_key].verified = true;\r\n    }\r\n\r\n    function verifyPhysician(address public_key) public returns (bool){\r\n        require(msg.sender == verifying_institution, \"Only the verify institution has the right to verify physician!\");\r\n        require(physicians[public_key].physician_number > 0, \"No physician exists under this address!\");\r\n        physicians[public_key].verified = true;\r\n    }\r\n\r\n    function verifyPharmacist(address public_key) public returns (bool){\r\n        require(msg.sender == verifying_institution, \"Only the verify institution has the right to verify pharmacist!\");\r\n        require(pharmacists[public_key].pharmacy_number > 0, \"No pharmacist exists under this address!\");\r\n        pharmacists[public_key].verified = true;\r\n    }\r\n\r\n\r\n\r\n    function getInsured(address public_key) public view returns(Insured memory){\r\n        if(insureds[public_key].insured_number > 0){\r\n            return insureds[public_key];\r\n        } \r\n    }\r\n\r\n    function getPhysician(address public_key) public view returns(Physician memory){\r\n        if(physicians[public_key].physician_number > 0){\r\n            return physicians[public_key];\r\n        } \r\n    }\r\n\r\n    function getPharmacist(address public_key) public view returns(Pharmacist memory){\r\n        if(pharmacists[public_key].pharmacy_number > 0){\r\n            return pharmacists[public_key];\r\n        } \r\n    }\r\n\r\n\r\n    // Returns true, if the user exists.\r\n    function checkExistence(string memory role, address public_key) public view returns (bool){\r\n        if(keccak256(abi.encodePacked(role)) == keccak256(abi.encodePacked('insured'))){\r\n            if(insureds[public_key].insured_number >0){\r\n                return true;\r\n            } else {\r\n                return false;\r\n            }\r\n        } else if (keccak256(abi.encodePacked(role)) == keccak256(abi.encodePacked('physician'))){\r\n            if(physicians[public_key].physician_number >0){\r\n                return true;\r\n            } else {\r\n                return false;\r\n            }\r\n        } else if (keccak256(abi.encodePacked(role)) == keccak256(abi.encodePacked('pharmacist'))){\r\n            if(pharmacists[public_key].pharmacy_number >0){\r\n                return true;\r\n            } else {\r\n                return false;\r\n            }\r\n        } else if (keccak256(abi.encodePacked(role)) == keccak256(abi.encodePacked('verifying_institution'))){\r\n            if(verifying_institution == public_key){\r\n                return true;\r\n            } else {\r\n                return false;\r\n            }\r\n        }\r\n    }\r\n\r\n    // Returns true, if the user exists and is verified by the verifying institution.\r\n    function checkVerification(string memory role, address public_key) public view returns (bool){\r\n        if(keccak256(abi.encodePacked(role)) == keccak256(abi.encodePacked('insured'))){\r\n            if(insureds[public_key].insured_number > 0 && insureds[public_key].verified == true){\r\n                return true;\r\n            } else {\r\n                return false;\r\n            }\r\n        } else if (keccak256(abi.encodePacked(role)) == keccak256(abi.encodePacked('physician'))){\r\n            if(physicians[public_key].physician_number > 0 && physicians[public_key].verified == true){\r\n                return true;\r\n            } else {\r\n                return false;\r\n            }\r\n        } else if (keccak256(abi.encodePacked(role)) == keccak256(abi.encodePacked('pharmacist'))){\r\n            if(pharmacists[public_key].pharmacy_number >0 && pharmacists[public_key].verified == true){\r\n                return true;\r\n            } else {\r\n                return false;\r\n            }\r\n        } else if (keccak256(abi.encodePacked(role)) == keccak256(abi.encodePacked('verifying_institution'))){\r\n            if(verifying_institution == public_key){\r\n                return true;\r\n            } else {\r\n                return false;\r\n            }\r\n        }\r\n    }    \r\n}",
  "sourcePath": "E:\\blockchain_e_prescription\\contracts\\User.sol",
  "compiler": {
    "name": "solc",
    "version": "0.5.16+commit.9c3226ce.Emscripten.clang"
  },
  "schemaVersion": "3.4.6",
  "updatedAt": "2023-03-31T11:08:16.785Z",
  "networkType": "ethereum",
  "devdoc": {
    "methods": {}
  },
  "userdoc": {
    "methods": {},
    "notice": "The Smart Contract User is responsible for storing the information of all users. Furthermore it provides all necessary functions to interact with users."
  }
}